{
  "contractName": "Location",
  "abi": [
    {
      "constant": true,
      "inputs": [
        {
          "name": "",
          "type": "uint256"
        }
      ],
      "name": "idToCourse",
      "outputs": [
        {
          "name": "id",
          "type": "uint256"
        },
        {
          "name": "price",
          "type": "uint256"
        },
        {
          "name": "startTime",
          "type": "uint256"
        },
        {
          "name": "endTime",
          "type": "uint256"
        },
        {
          "name": "brand",
          "type": "uint256"
        },
        {
          "name": "insurance",
          "type": "uint256"
        },
        {
          "name": "note",
          "type": "uint256"
        }
      ],
      "payable": false,
      "stateMutability": "view",
      "type": "function"
    },
    {
      "constant": true,
      "inputs": [
        {
          "name": "",
          "type": "address"
        }
      ],
      "name": "userToNote",
      "outputs": [
        {
          "name": "",
          "type": "uint256"
        }
      ],
      "payable": false,
      "stateMutability": "view",
      "type": "function"
    },
    {
      "constant": true,
      "inputs": [
        {
          "name": "",
          "type": "address"
        },
        {
          "name": "",
          "type": "uint256"
        }
      ],
      "name": "userCourseIdByIndex",
      "outputs": [
        {
          "name": "",
          "type": "uint256"
        }
      ],
      "payable": false,
      "stateMutability": "view",
      "type": "function"
    },
    {
      "constant": true,
      "inputs": [
        {
          "name": "",
          "type": "address"
        }
      ],
      "name": "userToTotalCourses",
      "outputs": [
        {
          "name": "",
          "type": "uint256"
        }
      ],
      "payable": false,
      "stateMutability": "view",
      "type": "function"
    },
    {
      "anonymous": false,
      "inputs": [
        {
          "indexed": false,
          "name": "id",
          "type": "uint256"
        },
        {
          "indexed": false,
          "name": "price",
          "type": "uint256"
        },
        {
          "indexed": false,
          "name": "brand",
          "type": "uint256"
        },
        {
          "indexed": false,
          "name": "insurance",
          "type": "uint256"
        },
        {
          "indexed": false,
          "name": "user",
          "type": "address"
        }
      ],
      "name": "InitCourse",
      "type": "event"
    },
    {
      "anonymous": false,
      "inputs": [
        {
          "indexed": false,
          "name": "id",
          "type": "uint256"
        },
        {
          "indexed": false,
          "name": "note",
          "type": "uint256"
        },
        {
          "indexed": false,
          "name": "renter",
          "type": "address"
        }
      ],
      "name": "FinishCourse",
      "type": "event"
    },
    {
      "constant": false,
      "inputs": [
        {
          "name": "_id",
          "type": "uint256"
        },
        {
          "name": "_price",
          "type": "uint256"
        },
        {
          "name": "_brand",
          "type": "uint256"
        },
        {
          "name": "_insurance",
          "type": "uint256"
        }
      ],
      "name": "initCourse",
      "outputs": [],
      "payable": false,
      "stateMutability": "nonpayable",
      "type": "function"
    },
    {
      "constant": false,
      "inputs": [
        {
          "name": "_id",
          "type": "uint256"
        }
      ],
      "name": "finishCourse",
      "outputs": [],
      "payable": false,
      "stateMutability": "nonpayable",
      "type": "function"
    },
    {
      "constant": true,
      "inputs": [
        {
          "name": "_user",
          "type": "address"
        }
      ],
      "name": "getNote",
      "outputs": [
        {
          "name": "",
          "type": "uint256"
        }
      ],
      "payable": false,
      "stateMutability": "view",
      "type": "function"
    }
  ],
  "bytecode": "0x6080604052600360005534801561001557600080fd5b506107bc806100256000396000f3fe608060405234801561001057600080fd5b506004361061007d5760003560e01c8063a3f606c11161005b578063a3f606c114610168578063df7284f3146101c0578063eed96f1814610222578063fc643efe1461027a5761007d565b806311601706146100825780632d32e46d146100ee578063527341571461013a575b600080fd5b6100ae6004803603602081101561009857600080fd5b81019080803590602001909291905050506102d2565b6040518088815260200187815260200186815260200185815260200184815260200183815260200182815260200197505050505050505060405180910390f35b6101386004803603608081101561010457600080fd5b8101908080359060200190929190803590602001909291908035906020019092919080359060200190929190505050610314565b005b6101666004803603602081101561015057600080fd5b8101908080359060200190929190505050610548565b005b6101aa6004803603602081101561017e57600080fd5b81019080803573ffffffffffffffffffffffffffffffffffffffff169060200190929190505050610627565b6040518082815260200191505060405180910390f35b61020c600480360360408110156101d657600080fd5b81019080803573ffffffffffffffffffffffffffffffffffffffff1690602001909291908035906020019092919050505061063f565b6040518082815260200191505060405180910390f35b6102646004803603602081101561023857600080fd5b81019080803573ffffffffffffffffffffffffffffffffffffffff169060200190929190505050610664565b6040518082815260200191505060405180910390f35b6102bc6004803603602081101561029057600080fd5b81019080803573ffffffffffffffffffffffffffffffffffffffff16906020019092919050505061067c565b6040518082815260200191505060405180910390f35b60026020528060005260406000206000915090508060000154908060010154908060020154908060030154908060040154908060050154908060060154905087565b6040518060e0016040528085815260200184815260200142815260200160008152602001838152602001828152602001600081525060026000868152602001908152602001600020600082015181600001556020820151816001015560408201518160020155606082015181600301556080820151816004015560a0820151816005015560c082015181600601559050506001600360003373ffffffffffffffffffffffffffffffffffffffff1673ffffffffffffffffffffffffffffffffffffffff1681526020019081526020016000205401600360003373ffffffffffffffffffffffffffffffffffffffff1673ffffffffffffffffffffffffffffffffffffffff1681526020019081526020016000208190555083600460003373ffffffffffffffffffffffffffffffffffffffff1673ffffffffffffffffffffffffffffffffffffffff1681526020019081526020016000206000600360003373ffffffffffffffffffffffffffffffffffffffff1673ffffffffffffffffffffffffffffffffffffffff168152602001908152602001600020548152602001908152602001600020819055507f78206285ab68579129d38bfcb9fb2102f58b5df8fe276ff0af77d009bfa6dd538484848433604051808681526020018581526020018481526020018381526020018273ffffffffffffffffffffffffffffffffffffffff1673ffffffffffffffffffffffffffffffffffffffff1681526020019550505050505060405180910390a150505050565b600060026000838152602001908152602001600020600301541461056b57600080fd5b42600260008381526020019081526020016000206003018190555060005460026000838152602001908152602001600020600601819055506105af336000546106c5565b7fe11d5a4775427a026abe4ba5704df6bfa9f32489c88716abb5d60bdf26012fec8160005433604051808481526020018381526020018273ffffffffffffffffffffffffffffffffffffffff1673ffffffffffffffffffffffffffffffffffffffff168152602001935050505060405180910390a150565b60016020528060005260406000206000915090505481565b6004602052816000526040600020602052806000526040600020600091509150505481565b60036020528060005260406000206000915090505481565b6000600160008373ffffffffffffffffffffffffffffffffffffffff1673ffffffffffffffffffffffffffffffffffffffff168152602001908152602001600020549050919050565b3373ffffffffffffffffffffffffffffffffffffffff168273ffffffffffffffffffffffffffffffffffffffff16146106fd57600080fd5b600281600160008573ffffffffffffffffffffffffffffffffffffffff1673ffffffffffffffffffffffffffffffffffffffff16815260200190815260200160002054018161074857fe5b04600160008473ffffffffffffffffffffffffffffffffffffffff1673ffffffffffffffffffffffffffffffffffffffff16815260200190815260200160002081905550505056fea165627a7a72305820e35cab3039588aff1ddfbcc4808978b360f31ccd9384479a7382759bb94810290029",
  "source": "pragma solidity >=0.4.22 <0.6.0;\ncontract Location {\n        struct Course {\n            uint id;\n            uint price;\n            uint startTime;\n            uint endTime;\n            uint brand;\n            uint insurance;\n            uint note;\n    }\n\n    uint newNote = 3;\n\n    event InitCourse(uint id, uint price, uint brand, uint insurance, address user);\n    event FinishCourse(uint id, uint note, address renter);\n\n    mapping (address => uint) public userToNote;\n    mapping (uint => Course) public idToCourse;\n    mapping (address => uint) public userToTotalCourses;\n    mapping (address => mapping (uint => uint)) public userCourseIdByIndex;\n\n\n    //générer l'id depuis le fronf\n    function initCourse(uint _id, uint _price, uint _brand, uint _insurance) public{\n        idToCourse[_id] = Course( _id, _price, now, 0, _brand, _insurance, 0);\n        userToTotalCourses[msg.sender] = userToTotalCourses[msg.sender] + 1;\n        userCourseIdByIndex[msg.sender][userToTotalCourses[msg.sender]] = _id;\n        emit InitCourse(_id, _price, _brand, _insurance, msg.sender);\n    }\n\n    function updateScore(address _address, uint _note) private {\n        require(_address == msg.sender);\n        userToNote[_address]=(userToNote[_address]+_note)/2;\n    }\n\n    function finishCourse(uint _id) public{\n        require(idToCourse[_id].endTime == 0);\n        idToCourse[_id].endTime=now;\n        idToCourse[_id].note = newNote;\n        updateScore(msg.sender,newNote);\n        emit FinishCourse(_id, newNote, msg.sender);\n    }\n\n    function getNote(address _user) public view returns (uint) {\n        return userToNote[_user];\n    }\n\n\n}\n",
  "sourcePath": "/Users/Frego/Documents/Blockathon/SUMO/contracts/Location.sol",
  "compiler": {
    "name": "solc",
    "version": "0.5.8+commit.23d335f2.Emscripten.clang"
  },
  "schemaVersion": "3.0.16",
  "updatedAt": "2019-11-13T16:17:06.438Z",
  "devdoc": {
    "methods": {}
  },
  "userdoc": {
    "methods": {}
  }
}